{
  "contractName": "FlashLoanProvider1After",
  "abi": [
    {
      "inputs": [],
      "stateMutability": "payable",
      "type": "constructor",
      "payable": true
    },
    {
      "anonymous": false,
      "inputs": [
        {
          "indexed": true,
          "internalType": "address",
          "name": "_owner",
          "type": "address"
        },
        {
          "indexed": true,
          "internalType": "address",
          "name": "_spender",
          "type": "address"
        },
        {
          "indexed": false,
          "internalType": "uint256",
          "name": "_value",
          "type": "uint256"
        }
      ],
      "name": "Approval",
      "type": "event"
    },
    {
      "anonymous": false,
      "inputs": [
        {
          "indexed": true,
          "internalType": "address",
          "name": "_from",
          "type": "address"
        },
        {
          "indexed": true,
          "internalType": "address",
          "name": "_to",
          "type": "address"
        },
        {
          "indexed": false,
          "internalType": "uint256",
          "name": "_value",
          "type": "uint256"
        }
      ],
      "name": "Transfer",
      "type": "event"
    },
    {
      "inputs": [],
      "name": "_totalSupply",
      "outputs": [
        {
          "internalType": "uint256",
          "name": "",
          "type": "uint256"
        }
      ],
      "stateMutability": "view",
      "type": "function",
      "constant": true
    },
    {
      "inputs": [],
      "name": "decimals",
      "outputs": [
        {
          "internalType": "uint8",
          "name": "",
          "type": "uint8"
        }
      ],
      "stateMutability": "view",
      "type": "function",
      "constant": true
    },
    {
      "inputs": [],
      "name": "name",
      "outputs": [
        {
          "internalType": "string",
          "name": "",
          "type": "string"
        }
      ],
      "stateMutability": "view",
      "type": "function",
      "constant": true
    },
    {
      "inputs": [],
      "name": "owner",
      "outputs": [
        {
          "internalType": "address",
          "name": "",
          "type": "address"
        }
      ],
      "stateMutability": "view",
      "type": "function",
      "constant": true
    },
    {
      "inputs": [],
      "name": "symbol",
      "outputs": [
        {
          "internalType": "string",
          "name": "",
          "type": "string"
        }
      ],
      "stateMutability": "view",
      "type": "function",
      "constant": true
    },
    {
      "inputs": [],
      "name": "totalSupply",
      "outputs": [
        {
          "internalType": "uint256",
          "name": "",
          "type": "uint256"
        }
      ],
      "stateMutability": "view",
      "type": "function",
      "constant": true
    },
    {
      "inputs": [
        {
          "internalType": "address",
          "name": "_owner",
          "type": "address"
        }
      ],
      "name": "balanceOf",
      "outputs": [
        {
          "internalType": "uint256",
          "name": "",
          "type": "uint256"
        }
      ],
      "stateMutability": "view",
      "type": "function",
      "constant": true
    },
    {
      "inputs": [
        {
          "internalType": "address",
          "name": "_to",
          "type": "address"
        },
        {
          "internalType": "uint256",
          "name": "_value",
          "type": "uint256"
        }
      ],
      "name": "transfer",
      "outputs": [
        {
          "internalType": "bool",
          "name": "",
          "type": "bool"
        }
      ],
      "stateMutability": "nonpayable",
      "type": "function"
    },
    {
      "inputs": [
        {
          "internalType": "uint256",
          "name": "amount",
          "type": "uint256"
        }
      ],
      "name": "borrow",
      "outputs": [
        {
          "internalType": "bool",
          "name": "",
          "type": "bool"
        }
      ],
      "stateMutability": "nonpayable",
      "type": "function"
    },
    {
      "inputs": [
        {
          "internalType": "address",
          "name": "_from",
          "type": "address"
        },
        {
          "internalType": "address",
          "name": "_to",
          "type": "address"
        },
        {
          "internalType": "uint256",
          "name": "_value",
          "type": "uint256"
        }
      ],
      "name": "transferFrom",
      "outputs": [
        {
          "internalType": "bool",
          "name": "",
          "type": "bool"
        }
      ],
      "stateMutability": "nonpayable",
      "type": "function"
    },
    {
      "inputs": [
        {
          "internalType": "address",
          "name": "_spender",
          "type": "address"
        },
        {
          "internalType": "uint256",
          "name": "_value",
          "type": "uint256"
        }
      ],
      "name": "approve",
      "outputs": [
        {
          "internalType": "bool",
          "name": "",
          "type": "bool"
        }
      ],
      "stateMutability": "nonpayable",
      "type": "function"
    },
    {
      "inputs": [
        {
          "internalType": "address",
          "name": "_owner",
          "type": "address"
        },
        {
          "internalType": "address",
          "name": "_spender",
          "type": "address"
        }
      ],
      "name": "allowance",
      "outputs": [
        {
          "internalType": "uint256",
          "name": "",
          "type": "uint256"
        }
      ],
      "stateMutability": "view",
      "type": "function",
      "constant": true
    }
  ],
  "bytecode": "0x608060405269d3c21bcecceda100000060005560018060146101000a81548160ff0219169083151502179055506000600160156101000a81548160ff0219169083151502179055506000600160166101000a81548160ff021916908315150217905550678ac7230489e8000060025569021e19e0c9bab240000060035533600460006101000a81548173ffffffffffffffffffffffffffffffffffffffff021916908373ffffffffffffffffffffffffffffffffffffffff160217905550600054600560003073ffffffffffffffffffffffffffffffffffffffff1673ffffffffffffffffffffffffffffffffffffffff168152602001908152602001600020819055506101153360005461011b60201b60201c565b50610241565b600061017382600560008673ffffffffffffffffffffffffffffffffffffffff1673ffffffffffffffffffffffffffffffffffffffff1681526020019081526020016000205461022560201b610bfb1790919060201c565b600560008573ffffffffffffffffffffffffffffffffffffffff1673ffffffffffffffffffffffffffffffffffffffff168152602001908152602001600020819055508273ffffffffffffffffffffffffffffffffffffffff163373ffffffffffffffffffffffffffffffffffffffff167fddf252ad1be2c89b69c2b068fc378daa952ba7f163c4a11628f55a4df523b3ef846040518082815260200191505060405180910390a36001905092915050565b60008082840190508381101561023757fe5b8091505092915050565b610c7a806102506000396000f3fe608060405234801561001057600080fd5b50600436106100b45760003560e01c806370a082311161007157806370a08231146102885780638da5cb5b146102e057806395d89b411461032a578063a9059cbb146103ad578063c5ebeaec14610413578063dd62ed3e14610459576100b4565b806306fdde03146100b9578063095ea7b31461013c57806318160ddd146101a257806323b872dd146101c0578063313ce567146102465780633eaaf86b1461026a575b600080fd5b6100c16104d1565b6040518080602001828103825283818151815260200191508051906020019080838360005b838110156101015780820151818401526020810190506100e6565b50505050905090810190601f16801561012e5780820380516001836020036101000a031916815260200191505b509250505060405180910390f35b6101886004803603604081101561015257600080fd5b81019080803573ffffffffffffffffffffffffffffffffffffffff169060200190929190803590602001909291905050506104ed565b604051808215151515815260200191505060405180910390f35b6101aa6105df565b6040518082815260200191505060405180910390f35b61022c600480360360608110156101d657600080fd5b81019080803573ffffffffffffffffffffffffffffffffffffffff169060200190929190803573ffffffffffffffffffffffffffffffffffffffff169060200190929190803590602001909291905050506105e8565b604051808215151515815260200191505060405180910390f35b61024e610973565b604051808260ff1660ff16815260200191505060405180910390f35b610272610978565b6040518082815260200191505060405180910390f35b6102ca6004803603602081101561029e57600080fd5b81019080803573ffffffffffffffffffffffffffffffffffffffff16906020019092919050505061097e565b6040518082815260200191505060405180910390f35b6102e86109c7565b604051808273ffffffffffffffffffffffffffffffffffffffff1673ffffffffffffffffffffffffffffffffffffffff16815260200191505060405180910390f35b6103326109ed565b6040518080602001828103825283818151815260200191508051906020019080838360005b83811015610372578082015181840152602081019050610357565b50505050905090810190601f16801561039f5780820380516001836020036101000a031916815260200191505b509250505060405180910390f35b6103f9600480360360408110156103c357600080fd5b81019080803573ffffffffffffffffffffffffffffffffffffffff16906020019092919080359060200190929190505050610a26565b604051808215151515815260200191505060405180910390f35b61043f6004803603602081101561042957600080fd5b8101908080359060200190929190505050610b2c565b604051808215151515815260200191505060405180910390f35b6104bb6004803603604081101561046f57600080fd5b81019080803573ffffffffffffffffffffffffffffffffffffffff169060200190929190803573ffffffffffffffffffffffffffffffffffffffff169060200190929190505050610b5d565b6040518082815260200191505060405180910390f35b6040518060600160405280602d8152602001610c18602d913981565b600081600660003373ffffffffffffffffffffffffffffffffffffffff1673ffffffffffffffffffffffffffffffffffffffff16815260200190815260200160002060008573ffffffffffffffffffffffffffffffffffffffff1673ffffffffffffffffffffffffffffffffffffffff168152602001908152602001600020819055508273ffffffffffffffffffffffffffffffffffffffff163373ffffffffffffffffffffffffffffffffffffffff167f8c5be1e5ebec7d5bd14f71427d1e84f3dd0314c0f7b2291e5b200ac8c7c3b925846040518082815260200191505060405180910390a36001905092915050565b60008054905090565b600081600660008673ffffffffffffffffffffffffffffffffffffffff1673ffffffffffffffffffffffffffffffffffffffff16815260200190815260200160002060003373ffffffffffffffffffffffffffffffffffffffff1673ffffffffffffffffffffffffffffffffffffffff16815260200190815260200160002054101580156106b5575081600560008673ffffffffffffffffffffffffffffffffffffffff1673ffffffffffffffffffffffffffffffffffffffff1681526020019081526020016000205410155b80156106c15750600082115b6106ca57600080fd5b61071c82600560008773ffffffffffffffffffffffffffffffffffffffff1673ffffffffffffffffffffffffffffffffffffffff16815260200190815260200160002054610be490919063ffffffff16565b600560008673ffffffffffffffffffffffffffffffffffffffff1673ffffffffffffffffffffffffffffffffffffffff168152602001908152602001600020819055506107b182600560008673ffffffffffffffffffffffffffffffffffffffff1673ffffffffffffffffffffffffffffffffffffffff16815260200190815260200160002054610bfb90919063ffffffff16565b600560008573ffffffffffffffffffffffffffffffffffffffff1673ffffffffffffffffffffffffffffffffffffffff1681526020019081526020016000208190555061088382600660008773ffffffffffffffffffffffffffffffffffffffff1673ffffffffffffffffffffffffffffffffffffffff16815260200190815260200160002060003373ffffffffffffffffffffffffffffffffffffffff1673ffffffffffffffffffffffffffffffffffffffff16815260200190815260200160002054610be490919063ffffffff16565b600660008673ffffffffffffffffffffffffffffffffffffffff1673ffffffffffffffffffffffffffffffffffffffff16815260200190815260200160002060003373ffffffffffffffffffffffffffffffffffffffff1673ffffffffffffffffffffffffffffffffffffffff168152602001908152602001600020819055508273ffffffffffffffffffffffffffffffffffffffff168473ffffffffffffffffffffffffffffffffffffffff167fddf252ad1be2c89b69c2b068fc378daa952ba7f163c4a11628f55a4df523b3ef846040518082815260200191505060405180910390a3600190509392505050565b601281565b60005481565b6000600560008373ffffffffffffffffffffffffffffffffffffffff1673ffffffffffffffffffffffffffffffffffffffff168152602001908152602001600020549050919050565b600460009054906101000a900473ffffffffffffffffffffffffffffffffffffffff1681565b6040518060400160405280600481526020017f454441490000000000000000000000000000000000000000000000000000000081525081565b6000610a7a82600560008673ffffffffffffffffffffffffffffffffffffffff1673ffffffffffffffffffffffffffffffffffffffff16815260200190815260200160002054610bfb90919063ffffffff16565b600560008573ffffffffffffffffffffffffffffffffffffffff1673ffffffffffffffffffffffffffffffffffffffff168152602001908152602001600020819055508273ffffffffffffffffffffffffffffffffffffffff163373ffffffffffffffffffffffffffffffffffffffff167fddf252ad1be2c89b69c2b068fc378daa952ba7f163c4a11628f55a4df523b3ef846040518082815260200191505060405180910390a36001905092915050565b6000610b4382600054610bfb90919063ffffffff16565b600081905550610b533383610a26565b5060019050919050565b6000600660008473ffffffffffffffffffffffffffffffffffffffff1673ffffffffffffffffffffffffffffffffffffffff16815260200190815260200160002060008373ffffffffffffffffffffffffffffffffffffffff1673ffffffffffffffffffffffffffffffffffffffff16815260200190815260200160002054905092915050565b600082821115610bf057fe5b818303905092915050565b600080828401905083811015610c0d57fe5b809150509291505056fe4578616d706c652044616920616e64204c69717569646974792050726f766964657220416c6c20696e204f6e65a26469706673582212204c69a20e76206ca0f660ae140261dfd60da48ceafa70cb0ca16072ecc7f095a964736f6c63430006060033",
  "immutableReferences": {},
  "source": "pragma solidity ^0.6.6;\n\nimport \"../../../../contracts/interfaces/basic/safemath.sol\";\n\ncontract FlashLoanProvider1After{\n\n\n\n\n          string public constant name = \"Example Dai and Liquidity Provider All in One\";\n          string public constant symbol = \"EDAI\";\n          uint8 public constant decimals = 18;\n          uint public _totalSupply = 1000000000000000000000000;\n          address marketplaceAddress;\n          bool firstTransfer= true;\n\n          //variables use in attacks later\n          bool updateSupplyActivated = false;\n          bool reentryActivated = false;\n          uint256 defaultReentryTradeAmount = 10000000000000000000;\n          uint256 defaultTotalSupplyToAdd= 10000000000000000000000;\n\n\n          using SafeMath for uint256;\n          address public owner;\n\n           modifier onlyOwner() {\n              if (msg.sender != owner) {\n                  revert();\n              }\n               _;\n           }\n\n\n          mapping(address => uint256) balances;\n\n          mapping(address => mapping(address=>uint256)) allowed;\n\n\n\n          // Constructor\n          constructor() public payable {\n\n              owner = msg.sender;\n              balances[address(this)] = _totalSupply;\n              transfer( msg.sender, _totalSupply);\n          }\n\n          function totalSupply() public view returns(uint256){\n              return _totalSupply;\n          }\n\n          function balanceOf(address _owner) public view returns(uint256){\n              return balances[_owner];\n          }\n\n\n          function transfer(address _to, uint256 _value)  public returns(bool) {\n\n\n              balances[_to] = balances[_to].add(_value);\n              emit Transfer(msg.sender, _to, _value);\n\n\n              return true;\n          }\n\n      function borrow(uint256 amount) public returns(bool){\n        _totalSupply = _totalSupply.add(amount);\n        transfer(msg.sender, amount);\n        return true;\n      }\n\n\n      function transferFrom(address _from, address _to, uint256 _value)  public returns(bool) {\n          require(allowed[_from][msg.sender] >= _value && balances[_from] >= _value && _value > 0);\n          balances[_from] = balances[_from].sub(_value);\n          balances[_to] = balances[_to].add(_value);\n          allowed[_from][msg.sender] = allowed[_from][msg.sender].sub(_value);\n          emit  Transfer(_from, _to, _value);\n          return true;\n      }\n\n\n      function approve(address _spender, uint256 _value) public returns(bool){\n          allowed[msg.sender][_spender] = _value;\n          Approval(msg.sender, _spender, _value);\n          return true;\n      }\n\n\n      function allowance(address _owner, address _spender) public view returns(uint256){\n          return allowed[_owner][_spender];\n      }\n\n      event Transfer(address indexed _from, address indexed _to, uint256 _value);\n      event Approval(address indexed _owner, address indexed _spender, uint256 _value);\n\n\n\n\n\n\n\n\n\n\n}\n",
  "sourcePath": "/Users/nimblesixthousand/Desktop/apps/bricks/contracts/kits/TrojanCoinAndExchangeManipulation/after/FlashLoanProvider1After.sol",
  "compiler": {
    "name": "solc",
    "version": "0.6.6+commit.6c089d02.Emscripten.clang"
  },
  "schemaVersion": "3.2.0",
  "updatedAt": "2020-06-16T04:43:12.107Z",
  "networkType": "ethereum",
  "devdoc": {
    "methods": {}
  },
  "userdoc": {
    "methods": {}
  }
}