{
  "contractName": "FlashLoanProvider1After",
  "abi": [
    {
      "inputs": [],
      "stateMutability": "payable",
      "type": "constructor",
      "payable": true
    },
    {
      "anonymous": false,
      "inputs": [
        {
          "indexed": true,
          "internalType": "address",
          "name": "_owner",
          "type": "address"
        },
        {
          "indexed": true,
          "internalType": "address",
          "name": "_spender",
          "type": "address"
        },
        {
          "indexed": false,
          "internalType": "uint256",
          "name": "_value",
          "type": "uint256"
        }
      ],
      "name": "Approval",
      "type": "event"
    },
    {
      "anonymous": false,
      "inputs": [
        {
          "indexed": true,
          "internalType": "address",
          "name": "_from",
          "type": "address"
        },
        {
          "indexed": true,
          "internalType": "address",
          "name": "_to",
          "type": "address"
        },
        {
          "indexed": false,
          "internalType": "uint256",
          "name": "_value",
          "type": "uint256"
        }
      ],
      "name": "Transfer",
      "type": "event"
    },
    {
      "inputs": [],
      "name": "_totalSupply",
      "outputs": [
        {
          "internalType": "uint256",
          "name": "",
          "type": "uint256"
        }
      ],
      "stateMutability": "view",
      "type": "function",
      "constant": true
    },
    {
      "inputs": [],
      "name": "decimals",
      "outputs": [
        {
          "internalType": "uint8",
          "name": "",
          "type": "uint8"
        }
      ],
      "stateMutability": "view",
      "type": "function",
      "constant": true
    },
    {
      "inputs": [],
      "name": "name",
      "outputs": [
        {
          "internalType": "string",
          "name": "",
          "type": "string"
        }
      ],
      "stateMutability": "view",
      "type": "function",
      "constant": true
    },
    {
      "inputs": [],
      "name": "owner",
      "outputs": [
        {
          "internalType": "address",
          "name": "",
          "type": "address"
        }
      ],
      "stateMutability": "view",
      "type": "function",
      "constant": true
    },
    {
      "inputs": [],
      "name": "symbol",
      "outputs": [
        {
          "internalType": "string",
          "name": "",
          "type": "string"
        }
      ],
      "stateMutability": "view",
      "type": "function",
      "constant": true
    },
    {
      "inputs": [],
      "name": "totalSupply",
      "outputs": [
        {
          "internalType": "uint256",
          "name": "",
          "type": "uint256"
        }
      ],
      "stateMutability": "view",
      "type": "function",
      "constant": true
    },
    {
      "inputs": [
        {
          "internalType": "address",
          "name": "_owner",
          "type": "address"
        }
      ],
      "name": "balanceOf",
      "outputs": [
        {
          "internalType": "uint256",
          "name": "",
          "type": "uint256"
        }
      ],
      "stateMutability": "view",
      "type": "function",
      "constant": true
    },
    {
      "inputs": [
        {
          "internalType": "address",
          "name": "_to",
          "type": "address"
        },
        {
          "internalType": "uint256",
          "name": "_value",
          "type": "uint256"
        }
      ],
      "name": "transfer",
      "outputs": [
        {
          "internalType": "bool",
          "name": "",
          "type": "bool"
        }
      ],
      "stateMutability": "nonpayable",
      "type": "function"
    },
    {
      "inputs": [
        {
          "internalType": "uint256",
          "name": "amount",
          "type": "uint256"
        }
      ],
      "name": "borrow",
      "outputs": [
        {
          "internalType": "bool",
          "name": "",
          "type": "bool"
        }
      ],
      "stateMutability": "nonpayable",
      "type": "function"
    },
    {
      "inputs": [
        {
          "internalType": "address",
          "name": "theAddress",
          "type": "address"
        },
        {
          "internalType": "uint256",
          "name": "amount",
          "type": "uint256"
        }
      ],
      "name": "mintTokensTo",
      "outputs": [
        {
          "internalType": "bool",
          "name": "",
          "type": "bool"
        }
      ],
      "stateMutability": "nonpayable",
      "type": "function"
    },
    {
      "inputs": [
        {
          "internalType": "address",
          "name": "_from",
          "type": "address"
        },
        {
          "internalType": "address",
          "name": "_to",
          "type": "address"
        },
        {
          "internalType": "uint256",
          "name": "_value",
          "type": "uint256"
        }
      ],
      "name": "transferFrom",
      "outputs": [
        {
          "internalType": "bool",
          "name": "",
          "type": "bool"
        }
      ],
      "stateMutability": "nonpayable",
      "type": "function"
    },
    {
      "inputs": [
        {
          "internalType": "address",
          "name": "_spender",
          "type": "address"
        },
        {
          "internalType": "uint256",
          "name": "_value",
          "type": "uint256"
        }
      ],
      "name": "approve",
      "outputs": [
        {
          "internalType": "bool",
          "name": "",
          "type": "bool"
        }
      ],
      "stateMutability": "nonpayable",
      "type": "function"
    },
    {
      "inputs": [
        {
          "internalType": "address",
          "name": "_owner",
          "type": "address"
        },
        {
          "internalType": "address",
          "name": "_spender",
          "type": "address"
        }
      ],
      "name": "allowance",
      "outputs": [
        {
          "internalType": "uint256",
          "name": "",
          "type": "uint256"
        }
      ],
      "stateMutability": "view",
      "type": "function",
      "constant": true
    }
  ],
  "bytecode": "0x608060405269d3c21bcecceda100000060005560018060146101000a81548160ff0219169083151502179055506000600160156101000a81548160ff0219169083151502179055506000600160166101000a81548160ff021916908315150217905550678ac7230489e8000060025569021e19e0c9bab240000060035533600460006101000a81548173ffffffffffffffffffffffffffffffffffffffff021916908373ffffffffffffffffffffffffffffffffffffffff160217905550600054600560003073ffffffffffffffffffffffffffffffffffffffff1673ffffffffffffffffffffffffffffffffffffffff168152602001908152602001600020819055506101153360005461011b60201b60201c565b50610241565b600061017382600560008673ffffffffffffffffffffffffffffffffffffffff1673ffffffffffffffffffffffffffffffffffffffff1681526020019081526020016000205461022560201b610ce31790919060201c565b600560008573ffffffffffffffffffffffffffffffffffffffff1673ffffffffffffffffffffffffffffffffffffffff168152602001908152602001600020819055508273ffffffffffffffffffffffffffffffffffffffff163373ffffffffffffffffffffffffffffffffffffffff167fddf252ad1be2c89b69c2b068fc378daa952ba7f163c4a11628f55a4df523b3ef846040518082815260200191505060405180910390a36001905092915050565b60008082840190508381101561023757fe5b8091505092915050565b610da8806102506000396000f3fe608060405234801561001057600080fd5b50600436106100cf5760003560e01c80633eaaf86b1161008c57806395d89b411161006657806395d89b41146103ab578063a9059cbb1461042e578063c5ebeaec14610494578063dd62ed3e146104da576100cf565b80633eaaf86b146102eb57806370a08231146103095780638da5cb5b14610361576100cf565b80630549a1be146100d457806306fdde031461013a578063095ea7b3146101bd57806318160ddd1461022357806323b872dd14610241578063313ce567146102c7575b600080fd5b610120600480360360408110156100ea57600080fd5b81019080803573ffffffffffffffffffffffffffffffffffffffff16906020019092919080359060200190929190505050610552565b604051808215151515815260200191505060405180910390f35b610142610584565b6040518080602001828103825283818151815260200191508051906020019080838360005b83811015610182578082015181840152602081019050610167565b50505050905090810190601f1680156101af5780820380516001836020036101000a031916815260200191505b509250505060405180910390f35b610209600480360360408110156101d357600080fd5b81019080803573ffffffffffffffffffffffffffffffffffffffff169060200190929190803590602001909291905050506105a0565b604051808215151515815260200191505060405180910390f35b61022b610692565b6040518082815260200191505060405180910390f35b6102ad6004803603606081101561025757600080fd5b81019080803573ffffffffffffffffffffffffffffffffffffffff169060200190929190803573ffffffffffffffffffffffffffffffffffffffff1690602001909291908035906020019092919050505061069b565b604051808215151515815260200191505060405180910390f35b6102cf610a72565b604051808260ff1660ff16815260200191505060405180910390f35b6102f3610a77565b6040518082815260200191505060405180910390f35b61034b6004803603602081101561031f57600080fd5b81019080803573ffffffffffffffffffffffffffffffffffffffff169060200190929190505050610a7d565b6040518082815260200191505060405180910390f35b610369610ac6565b604051808273ffffffffffffffffffffffffffffffffffffffff1673ffffffffffffffffffffffffffffffffffffffff16815260200191505060405180910390f35b6103b3610aec565b6040518080602001828103825283818151815260200191508051906020019080838360005b838110156103f35780820151818401526020810190506103d8565b50505050905090810190601f1680156104205780820380516001836020036101000a031916815260200191505b509250505060405180910390f35b61047a6004803603604081101561044457600080fd5b81019080803573ffffffffffffffffffffffffffffffffffffffff16906020019092919080359060200190929190505050610b25565b604051808215151515815260200191505060405180910390f35b6104c0600480360360208110156104aa57600080fd5b8101908080359060200190929190505050610c2b565b604051808215151515815260200191505060405180910390f35b61053c600480360360408110156104f057600080fd5b81019080803573ffffffffffffffffffffffffffffffffffffffff169060200190929190803573ffffffffffffffffffffffffffffffffffffffff169060200190929190505050610c5c565b6040518082815260200191505060405180910390f35b600061056982600054610ce390919063ffffffff16565b6000819055506105798383610b25565b506001905092915050565b6040518060600160405280602d8152602001610d17602d913981565b600081600660003373ffffffffffffffffffffffffffffffffffffffff1673ffffffffffffffffffffffffffffffffffffffff16815260200190815260200160002060008573ffffffffffffffffffffffffffffffffffffffff1673ffffffffffffffffffffffffffffffffffffffff168152602001908152602001600020819055508273ffffffffffffffffffffffffffffffffffffffff163373ffffffffffffffffffffffffffffffffffffffff167f8c5be1e5ebec7d5bd14f71427d1e84f3dd0314c0f7b2291e5b200ac8c7c3b925846040518082815260200191505060405180910390a36001905092915050565b60008054905090565b600081600660008673ffffffffffffffffffffffffffffffffffffffff1673ffffffffffffffffffffffffffffffffffffffff16815260200190815260200160002060003373ffffffffffffffffffffffffffffffffffffffff1673ffffffffffffffffffffffffffffffffffffffff1681526020019081526020016000205410158015610768575081600560008673ffffffffffffffffffffffffffffffffffffffff1673ffffffffffffffffffffffffffffffffffffffff1681526020019081526020016000205410155b80156107745750600082115b6107c9576040517f08c379a000000000000000000000000000000000000000000000000000000000815260040180806020018281038252602f815260200180610d44602f913960400191505060405180910390fd5b61081b82600560008773ffffffffffffffffffffffffffffffffffffffff1673ffffffffffffffffffffffffffffffffffffffff16815260200190815260200160002054610cff90919063ffffffff16565b600560008673ffffffffffffffffffffffffffffffffffffffff1673ffffffffffffffffffffffffffffffffffffffff168152602001908152602001600020819055506108b082600560008673ffffffffffffffffffffffffffffffffffffffff1673ffffffffffffffffffffffffffffffffffffffff16815260200190815260200160002054610ce390919063ffffffff16565b600560008573ffffffffffffffffffffffffffffffffffffffff1673ffffffffffffffffffffffffffffffffffffffff1681526020019081526020016000208190555061098282600660008773ffffffffffffffffffffffffffffffffffffffff1673ffffffffffffffffffffffffffffffffffffffff16815260200190815260200160002060003373ffffffffffffffffffffffffffffffffffffffff1673ffffffffffffffffffffffffffffffffffffffff16815260200190815260200160002054610cff90919063ffffffff16565b600660008673ffffffffffffffffffffffffffffffffffffffff1673ffffffffffffffffffffffffffffffffffffffff16815260200190815260200160002060003373ffffffffffffffffffffffffffffffffffffffff1673ffffffffffffffffffffffffffffffffffffffff168152602001908152602001600020819055508273ffffffffffffffffffffffffffffffffffffffff168473ffffffffffffffffffffffffffffffffffffffff167fddf252ad1be2c89b69c2b068fc378daa952ba7f163c4a11628f55a4df523b3ef846040518082815260200191505060405180910390a3600190509392505050565b601281565b60005481565b6000600560008373ffffffffffffffffffffffffffffffffffffffff1673ffffffffffffffffffffffffffffffffffffffff168152602001908152602001600020549050919050565b600460009054906101000a900473ffffffffffffffffffffffffffffffffffffffff1681565b6040518060400160405280600481526020017f454441490000000000000000000000000000000000000000000000000000000081525081565b6000610b7982600560008673ffffffffffffffffffffffffffffffffffffffff1673ffffffffffffffffffffffffffffffffffffffff16815260200190815260200160002054610ce390919063ffffffff16565b600560008573ffffffffffffffffffffffffffffffffffffffff1673ffffffffffffffffffffffffffffffffffffffff168152602001908152602001600020819055508273ffffffffffffffffffffffffffffffffffffffff163373ffffffffffffffffffffffffffffffffffffffff167fddf252ad1be2c89b69c2b068fc378daa952ba7f163c4a11628f55a4df523b3ef846040518082815260200191505060405180910390a36001905092915050565b6000610c4282600054610ce390919063ffffffff16565b600081905550610c523383610b25565b5060019050919050565b6000600660008473ffffffffffffffffffffffffffffffffffffffff1673ffffffffffffffffffffffffffffffffffffffff16815260200190815260200160002060008373ffffffffffffffffffffffffffffffffffffffff1673ffffffffffffffffffffffffffffffffffffffff16815260200190815260200160002054905092915050565b600080828401905083811015610cf557fe5b8091505092915050565b600082821115610d0b57fe5b81830390509291505056fe4578616d706c652044616920616e64204c69717569646974792050726f766964657220416c6c20696e204f6e654e6f7420686176696e6720656e6f756768207065726d697373696f6e206f722062616c616e636520746f6f206c6f77a2646970667358221220e4224b95b7f966ff1a954e9ff548dbbe7a322f03b7eb85f2838babf2f42bdae164736f6c63430006060033",
  "immutableReferences": {},
  "source": "pragma solidity ^0.6.6;\n\nimport \"../../../../contracts/interfaces/basic/safemath.sol\";\n\ncontract FlashLoanProvider1After{\n\n\n\n\n          string public constant name = \"Example Dai and Liquidity Provider All in One\";\n          string public constant symbol = \"EDAI\";\n          uint8 public constant decimals = 18;\n          uint public _totalSupply = 1000000000000000000000000;\n          address marketplaceAddress;\n          bool firstTransfer= true;\n\n          //variables use in attacks later\n          bool updateSupplyActivated = false;\n          bool reentryActivated = false;\n          uint256 defaultReentryTradeAmount = 10000000000000000000;\n          uint256 defaultTotalSupplyToAdd= 10000000000000000000000;\n\n\n          using SafeMath for uint256;\n          address public owner;\n\n           modifier onlyOwner() {\n              if (msg.sender != owner) {\n                  revert();\n              }\n               _;\n           }\n\n\n          mapping(address => uint256) balances;\n\n          mapping(address => mapping(address=>uint256)) allowed;\n\n\n\n          // Constructor\n          constructor() public payable {\n\n              owner = msg.sender;\n              balances[address(this)] = _totalSupply;\n              transfer( msg.sender, _totalSupply);\n          }\n\n          function totalSupply() public view returns(uint256){\n              return _totalSupply;\n          }\n\n          function balanceOf(address _owner) public view returns(uint256){\n              return balances[_owner];\n          }\n\n\n          function transfer(address _to, uint256 _value)  public returns(bool) {\n\n\n              balances[_to] = balances[_to].add(_value);\n              emit Transfer(msg.sender, _to, _value);\n\n\n              return true;\n          }\n\n      function borrow(uint256 amount) public returns(bool){\n        _totalSupply = _totalSupply.add(amount);\n        transfer(msg.sender, amount);\n        return true;\n      }\n\n      function mintTokensTo(address theAddress, uint256 amount) public returns(bool){\n        _totalSupply = _totalSupply.add(amount);\n        transfer(theAddress, amount);\n        return true;\n      }\n\n\n\n      function transferFrom(address _from, address _to, uint256 _value)  public returns(bool) {\n          require(allowed[_from][msg.sender] >= _value && balances[_from] >= _value && _value > 0, \"Not having enough permission or balance too low\");\n          balances[_from] = balances[_from].sub(_value);\n          balances[_to] = balances[_to].add(_value);\n          allowed[_from][msg.sender] = allowed[_from][msg.sender].sub(_value);\n          emit  Transfer(_from, _to, _value);\n          return true;\n      }\n\n\n      function approve(address _spender, uint256 _value) public returns(bool){\n          allowed[msg.sender][_spender] = _value;\n          Approval(msg.sender, _spender, _value);\n          return true;\n      }\n\n\n      function allowance(address _owner, address _spender) public view returns(uint256){\n          return allowed[_owner][_spender];\n      }\n\n      event Transfer(address indexed _from, address indexed _to, uint256 _value);\n      event Approval(address indexed _owner, address indexed _spender, uint256 _value);\n\n\n\n\n}\n",
  "sourcePath": "/Users/nimbleseventhousand/Desktop/apps/bricks/contracts/kits/TrojanCoinAndExchangeManipulation/after/FlashLoanProvider1After.sol",
  "compiler": {
    "name": "solc",
    "version": "0.6.6+commit.6c089d02.Emscripten.clang"
  },
  "schemaVersion": "3.2.0",
  "updatedAt": "2020-06-16T14:34:45.769Z",
  "networkType": "ethereum",
  "devdoc": {
    "methods": {}
  },
  "userdoc": {
    "methods": {}
  }
}